:020000040800F2
:1000000000000120D58100085D3C00085F3C00082D
:10001000613C0008633C0008653C000800000000EB
:1000200000000000000000000000000061790008EE
:10003000673C000800000000017A0008657A0008AB
:1000400025820008258200082582000825820008F4
:1000500025820008258200082582000825820008E4
:1000600025820008258200082582000825820008D4
:1000700025820008258200082582000825820008C4
:10008000693C0008793C00082582000825820008A8
:1000900025820008258200082582000825820008A4
:1000A00025820008893C0008258200082582000876
:1000B0002582000825820008258200082582000884
:1000C0002582000825820008258200082582000874
:1000D0002582000825820008993C00082582000836
:1000E0002582000825820008258200082582000854
:1000F0002582000825820008258200082582000844
:100100002582000800000000000000002582000891
:100110002582000825820008258200082582000823
:100120002582000825820008258200082582000813
:100130002582000825820008000000000000000061
:1001400025820008258200082582000800000000A2
:10015000000000000000000000000000000000009F
:1001600025820008258200082582000825820008D3
:1001700025820008258200082582000825820008C3
:100180002582000825820008000000000000000011
:0401900025820008BC
:1001C0000348044B834202D0034B03B118477047E6
:1001D000CC020020CC020020000000000548064BA5
:1001E0001B1AD90F01EBA301491002D0034B03B135
:1001F00018477047CC020020CC020020000000000D
:1002000010B5064C237843B9FFF7DAFF044B13B15E
:100210000448AFF300800123237010BDD0020020FA
:1002200000000000840F010808B5044B1BB104490D
:100230000448AFF30080BDE80840CFE700000000AD
:10024000D4020020840F010870B50F4B0F4DAB4254
:10025000A3EB050607D0B610002455F8043B013483
:100260009847A642F9D810F08DFE094D094B5E1B48
:10027000AB424FEAA60606D0002455F8043B0134F1
:100280009847A642F9D870BD5C1C01085C1C0108A7
:100290005C1C0108641C0108830730B547D0541E5C
:1002A000002A3ED0CAB2034601E0013C39D303F82C
:1002B000012B9D07F9D1032C2CD9CDB205EB0525D7
:1002C0000F2C05EB054535D9A4F1100222F00F0CD7
:1002D00003F1100EE6444FEA121C1A46C2E900551B
:1002E000C2E9025510327245F8D10CF1010214F046
:1002F0000C0F03EB021204F00F0C13D0ACF104034B
:1003000023F003030433134442F8045B9342FBD10C
:100310000CF003042CB1C9B21C4403F8011BA34226
:10032000FBD130BD64461346002CF4D1F9E70346F7
:100330001446C0E71A46A446E0E700BF014B186820
:10034000704700BF00000020844641EA000313F01C
:1003500003036DD1403A41D351F8043B40F8043BCC
:1003600051F8043B40F8043B51F8043B40F8043B8F
:1003700051F8043B40F8043B51F8043B40F8043B7F
:1003800051F8043B40F8043B51F8043B40F8043B6F
:1003900051F8043B40F8043B51F8043B40F8043B5F
:1003A00051F8043B40F8043B51F8043B40F8043B4F
:1003B00051F8043B40F8043B51F8043B40F8043B3F
:1003C00051F8043B40F8043B51F8043B40F8043B2F
:1003D00051F8043B40F8043B403ABDD2303211D3CF
:1003E00051F8043B40F8043B51F8043B40F8043B0F
:1003F00051F8043B40F8043B51F8043B40F8043BFF
:10040000103AEDD20C3205D351F8043B40F8043BCE
:10041000043AF9D2043208D0D2071CBF11F8013BCC
:1004200000F8013B01D30B8803806046704700BF92
:10043000082A13D38B078DD010F003038AD0C3F1A1
:100440000403D21ADB071CBF11F8013B00F8013B83
:1004500080D331F8023B20F8023B7BE7043AD9D342
:10046000013A11F8013B00F8013BF9D20B78037017
:100470004B7843708B788370604670470EB400B53C
:1004800082B003AB816853F8042B019300F060F84D
:1004900002B05DF804EB03B0704700BF0FB400B5C5
:1004A000074983B004AB086853F8042B81680193B3
:1004B00000F04EF803B05DF804EB04B0704700BFE5
:1004C000000000209368013B002B936011DA10B408
:1004D0009469A34209DB0A2907D01368581C1060ED
:1004E000197008465DF8044B70475DF8044B00F046
:1004F00073B91368581C106019700846704700BF24
:100500009BB1F8B5134406460F46541E5D1E01E02C
:10051000AC4208D014F8011F3A463046FFF7D2FF2C
:10052000431CF5D1F8BD0020F8BD0020704700BF86
:10053000936810B514461BB918460023636010BDBC
:1005400000F09AF90023A3600023636010BD00BF90
:100550002DE9F04FA1B08B4691461C46049018B18E
:10056000036A002B00F01C81BBF80C30180740F127
:100570009580DBF81030002B00F090800023CA46F5
:100580000D9343F22003ADF839309AF80030864ECF
:1005900007940127002B79D0D14604E019F8013FD8
:1005A000002B00F08580252BF8D1B9EB0A0840F02C
:1005B000828099F80030002B68D000234FF0FF3282
:1005C000CDE9092309F1010908930B938DF86330F4
:1005D0001E9305E0089A07FA03F31A430892A1460E
:1005E0004C46052214F8011B304600F051FEA2468D
:1005F000831B0028EED1089BD90644BF20228DF82A
:10060000632099F800101A0744BF2B228DF863204D
:100610002A2966D1079A1168043200290792C0F28C
:100620009A800B9199F801102E2970D05F4C03220B
:10063000204600F02DFE38B1089B001B402282406E
:1006400013430AF1010A08931AF8011B58488DF860
:100650003810062200F01CFE002800F08280554B66
:10066000002B69D007AA0092534B04985A4608A958
:10067000AFF300800390039B013307D00D9B039AD7
:1006800013440D939AF80030002B85D1BBF80C3041
:100690005B060AD40D9821B0BDE8F08F0498594646
:1006A00000F046FE00283FF469AF4FF0FF30F2E75C
:1006B000B9EB0A08EAD00AF1FF35CDF81490A94643
:1006C000049D01E0A0453ED94C465A4619F8011F49
:1006D0002846FFF7F7FE02340130A4EB0A04F1D1FB
:1006E000D4E7A1F13002092A88BFCA469CD80B9BE7
:1006F00000E00134217803EB830302EB4303A1F113
:100700003002092AF5D92E290B93A2468ED19AF8E8
:1007100001102A292FD1079B9AF802101A68099212
:100720000433002A0AF102000793B8BF4FF0FF33E9
:100730008246B8BF099379E7079B073323F0070385
:10074000083307939AE70D99DDF81490414499F81E
:1007500000300D912FE7494243F002030B910893BB
:1007600060E707AA0092144B04985A4608A900F0C3
:1007700005FF03907FE7A1F130020023092A0993C6
:100780000AF1010A3FF652AF1AF8011F03EB830387
:1007900002EB4303A1F13002092AF5D9099345E799
:1007A00000F0D4FAE0E600BF38110108401101085A
:1007B00044110108000000000105000810B4054CB8
:1007C0008446134620685DF8044B0A466146FFF7ED
:1007D000BFBE00BF00000020F8B50D461446064617
:1007E00010B1036A002B37D0A389A269A2601A074F
:1007F00019D52369BBB122686169D31AEDB2994258
:100800002F4620DD0133A1680139A160511C216010
:10081000157062699A420DD0A389DB0701D50A2DB4
:1008200008D03846F8BD2146304600F081FD38B981
:100830002369E0E72146304600F042FB0028F0D073
:100840004FF0FF37EDE72146304600F039FB002836
:10085000F6D122680123D6E700F078FAC4E700BF9A
:1008600010B4044C03460A4620685DF8044B194650
:10087000FFF7B2BF000000209368002B00F0F88063
:100880002DE9F04FB1F90CC01CF0080F83B0904671
:1008900081460C4631D00B697BB31CF00207D8F8B7
:1008A000006038D00027D4F828B0216ADFF8C4A24D
:1008B0003D4655452B463A4628BF53464846C5B1A6
:1008C000D847002840F3CA80D8F808301B1A0744DC
:1008D0002D1AC8F80830002B00F0B68055452B467D
:1008E000D4F828B0216A28BF53463A464846002D1E
:1008F000E6D1D6E900750836DBE72146484600F028
:1009000017FD002840F0AF80B4F90CC0D8F80060A3
:100910001CF00207C6D11CF0010A63D12368A1684C
:10092000574618468B46002F58D01CF4007F00F025
:10093000B580B9420A4600F2E1801CF4906F2FD0D6
:10094000216962695D1A02EB420202EBD2726B1CF2
:1009500052103B44934292BF93469B461A461CF466
:10096000806F00F0EA801146484600F00FFB002837
:1009700000F0F9802A4621690090FFF7E5FCA28982
:10098000009B22F4906242F08002A2815819ABEBE6
:100990000505C4F814B02361A5602060BB463A4643
:1009A0005146009200F0D0FBA1682368009AA1EBA9
:1009B0000B011A443D46A16022600027D8F8083098
:1009C0005B1BAA44C8F80830002B3DD02368A168FF
:1009D000B4F90CC018468B46002FA6D1D6E900A763
:1009E00008369EE73846BB463D460097002D41D06D
:1009F000002846D0009A2068A168D4E90473AA426E
:100A000028BF2A46B84204D901EB030A524500F335
:100A10008580934275DC216AA76A5A464846B847E2
:100A2000B0F1000A1ADD009BB3EB0A0300930FD06C
:100A30000120D8F80830A3EB0A03D344A5EB0A053C
:100A4000C8F80830002BD1D1002003B0BDE8F08FEA
:100A50002146484600F034FA0028EAD0B4F90C30B8
:100A600043F04003A3814FF0FF3003B0BDE8F08FA7
:100A700000207047756833460836002DFAD0D3F849
:100A800000B02A460A21584600F002FC002867D030
:100A90000130A0EB0B0300931A46ACE722699A429F
:100AA00014D36269BA4211D86FF00043BB4228BF29
:100AB0003B46A56A93FBF2F3216A02FB03F3484627
:100AC0005246A847051EC9DD7F1B77E7B94228BFFC
:100AD00039460D4618460A46514600F035FBA168D6
:100AE0002368491B2B44A16023600029ECD12146D7
:100AF000484600F0E5F90028E6D0AFE7BB463A46A5
:100B00004EE75946019200F01FFB019AA3689B1A19
:100B1000A360236813442360924684E759465246F3
:100B200000F012FB2368534423602146484600F03E
:100B3000C7F900283FF477AF90E7484600F05AFC29
:100B4000034600287FF422AF2169484600F09EFA50
:100B5000B4F90C300C22C9F8002023F080037FE7A1
:100B60006A1C009247E70C22B4F90C30C9F8002047
:100B700076E700BF00FCFF7F00207047024A034970
:100B8000034800F061BB00BF50000020C10E000808
:100B9000040000200C4B4168994210B5044601D076
:100BA00000F08EF9A168094B994202D0204600F06E
:100BB00087F9E168064B994204D02046BDE8104011
:100BC00000F07EB910BD00BFEC02002054030020ED
:100BD000BC030020002070472DE9F8432A4C2B4924
:100BE000DFF8BC90DFF8BC80294FC4F8381100252D
:100BF00004230822294604F15C00264EE360C4E980
:100C00000055C4E90455A5606566A561FFF744FB7E
:100C1000214B63670822294604F1C400C4E908494E
:100C2000C4E90A87C4E91A55C4E91E552567C4F802
:100C3000CC50C4F880502663FFF72EFB174BC4F846
:100C4000DC30294604F16803082204F59670C4F8E4
:100C50008830C4E92398C4E92576C4E93455C4E949
:100C60003855C4F8D850C4F83451C4F8E850FFF7E8
:100C700013FB04F1D003C4E93D98C4E93F76C4F8FE
:100C8000F030BDE8F88300BFEC0200207D0B0008C7
:100C9000CD190008F1190008090001001200020036
:100CA000651900088D190008F8B5254BD3F83831BF
:100CB0000646002B3CD0234FD7E90134013B04D535
:100CC0001DE05A1C04F1680419D0B4F90C50013B22
:100CD000002DF6D11C4BE360C4E90155C4E904556D
:100CE00065662560A5610822294604F15C00FFF7CE
:100CF000D3FAC4E90D55C4E912552046F8BD3D6844
:100D00000DB12F46D8E74FF4D671304600F03EF9CA
:100D1000044680B10423C0E900530C302946A0608A
:100D20004FF4D0722546FFF7B7FA3C602F46C3E771
:100D3000FFF752FFBFE70C2338603360DDE700BFE9
:100D4000EC020020500000200100FFFF036A03B105
:100D50007047044B044AD3F838310262002BF7D1B4
:100D60003AE700BFEC020020950B0008704700BF77
:100D7000704700BF024A0349002000F065BA00BF77
:100D800050000020790B0008024A0349002000F0BF
:100D90005BBA00BF50000020D50B0008B1F90C3041
:100DA0002DE9F0411E070C4680463DD44A68002AD2
:100DB00056DDE56A002D34D00022D8F80060C8F86E
:100DC000002013F48052216A57D101234046A847DE
:100DD000451C024666D0B4F90C30E56A216A580712
:100DE00005D56368D21A636B0BB1236CD21A00234A
:100DF0004046A847431C42D0002363602369236018
:100E0000A389DF0400D56065616BC8F8006041B15B
:100E100004F14403994202D0404600F037F9002320
:100E200063630020BDE8F0810E69002EF9D09B07B6
:100E30000D6808BF4B690E6018BF0023AD1B8B60A7
:100E40000BE02B463246216AA76A4046B847B0F10C
:100E5000000CA5EB0C05664406DD002DF1DCE0E797
:100E60000A6C002AA5DCDCE7B4F90C3043F040033F
:100E7000A3814FF0FF30BDE8F081626DAFE7D8F895
:100E80000010B4F90C301D29F0D80C4ACA40D5071F
:100E9000ECD52269226000226260DA04B4D5002910
:100EA000B1D0B1E7D8F80030002B94D01D2B01D081
:100EB000162BD9D1C8F80060B3E700BF010040206D
:100EC0000B69B3B110B5044682B008B1036A5BB1D7
:100ED000B1F90C3013B9002002B010BD204602B0A9
:100EE000BDE81040FFF75ABF0191FFF72FFF0199AE
:100EF000EEE70020704700BFB8B138B50D4A03696E
:100F0000156804462BB10DB12B6A53B1B4F90C30FE
:100F10000BB9002038BD21462846BDE83840FFF710
:100F20003DBF2846FFF712FFF0E7034A0349044894
:100F300000F08AB90000002050000020C10E000817
:100F40000400002070B5104E336805460C46B3B15E
:100F50002146284600F0F4FC431C0CD0C41C24F0AD
:100F60000304A04205D0211A284600F0E9FC013014
:100F700001D0204670BD4FF0FF34204670BD1946A9
:100F800000F0DEFC3060E3E7280400202DE9F843A0
:100F9000CD1C25F0030508350C2D38BF0C25002D80
:100FA000064618DBA94216D8DFF8DC8000F028FCE2
:100FB000D8F80420A2B1144603E0636822467BB14E
:100FC0001C4623685B1BF8D40B2B1FD89442636824
:100FD00054D053600CE00C2333600020BDE8F8834C
:100FE00029463046FFF7AEFF431C044619D0056082
:100FF000304600F007FC04F10B00231D20F0070031
:10100000C21A1CBF1B1AA350BDE8F8836119944291
:10101000256014BF5160C8F80410635163684B60C9
:10102000E6E7D8F804701FB33C467F68002FFBD179
:1010300023683946304604EB030900F081FC814502
:1010400016D12368ED1A29463046FFF77BFF0130A1
:101050000ED02368D8F804202B442360536883B152
:10106000A34203D01A465B689C42FBD10023B0E741
:101070000C233360304600F0C5FBAEE7C8F80430FF
:10108000B6E7C8F80470B3E728040020002950D060
:1010900038B551F8043C0C1F002BB8BFE4180546C6
:1010A00000F0AEFB274A13682BB1A3420CD921688C
:1010B000601883422CD0636028461460BDE8384035
:1010C00000F0A0BBA3420FD81A465B68002BF9D1F1
:1010D00011685018844217D02CD36360546028469E
:1010E000BDE8384000F08EBB11685018A04214D003
:1010F00020D8216860188342EFD118685B680844E3
:10110000C4E900035460EAE723680B441360E6E790
:1011100018685B6808442060CDE7206801445018D7
:1011200083421160DBD1D3E900040144C2E9001419
:10113000D5E770470C232B602846BDE8384000F007
:1011400061BB00BF2C04002088420ED98B1883425B
:101150000BD900EB020C002A6ED0624613F801CDC9
:1011600002F801CD9942F9D170470F2A0FD80346F2
:1011700002F1FF3C002A5FD00CF1010C013B8C44D2
:1011800011F8012B03F8012F6145F9D1704740EAAE
:1011900001039B0751D1A2F1100370B501F1200C9E
:1011A00023F00F0501F1100E00F11004AC441B09EF
:1011B0005EF8105C44F8105C5EF80C5C44F80C5C63
:1011C0005EF8085C44F8085C5EF8045C44F8045C73
:1011D0000EF1100EE64504F11004E9D1013312F0CE
:1011E0000C0F01EB031102F00F0400EB031328D0E6
:1011F000043C24F003064FEA940C1E441C1F8E4648
:101200005EF8045B44F8045FB442F9D10CF10104C8
:1012100002F0030203EB840301EB840102F1FF3CC3
:101220004AB10CF1010C013B8C4411F8012B03F87D
:10123000012F6145F9D170BD704702F1FF3C0346B3
:101240009AE72246EAE700BF2DE9F84307468846B9
:1012500016464FF00009D6E90154013D10D4A38988
:10126000012B08D9B4F90E3001332146384602D09B
:10127000C04749EA0009013D6B1C04F16804EED146
:101280003668002EE7D14846BDE8F883000000002C
:1012900001F0FF01102A2BDB10F0070F08D010F827
:1012A000013B013A8B422DD010F0070F42B3F6D12B
:1012B000F0B441EA012141EA014122F007047FF044
:1012C00000070023F0E80256083C85EA010586EA9B
:1012D000010685FA47F5A3FA87F586FA47F6A5FAD7
:1012E00087F68EB9EED1F0BC01F0FF0102F00702E3
:1012F00032B110F8013B013A83EA010313B1F8D18E
:101300000020704701387047002D06BF354603386E
:10131000073815F0010F07D1013015F4807F02BFA7
:10132000013015F4C03F0130F0BC0138704700BFF8
:1013300038B52F4B1B6805460C4613B11A6A002AB4
:101340004BD0B4F90C3018071CD5226922B313F026
:10135000010107D0616900204942A060A1613AB152
:10136000002038BD980758BF6169A160002AF7D1F5
:10137000190658BF1046F4D543F04003A3814FF03F
:10138000FF3038BDD9062CD55A0712D4226943F054
:101390000803A381002ADAD103F42071B1F5007F9C
:1013A000D5D02146284600F02FFAB4F90C30226936
:1013B000CDE7616B51B104F14402914204D028465B
:1013C000FFF764FEB4F90C30002262632269002149
:1013D000C4E9002123F02403D9E71846FFF7B6FC3F
:1013E000AFE7092243F040032A60A381C7E700BFAB
:1013F000000000202DE9F041144641B30AB306462F
:101400000D4600F0F9FA8442074602D8B4EB500FBB
:1014100013D821463046FFF7B9FD804650B1BC4293
:101420002246294628BF3A46FEF78EFF2946304617
:10143000FFF72CFE4046BDE8F081A8464046BDE8D7
:10144000F081A046FFF722FE4046BDE8F081BDE8EE
:10145000F0411146FFF79ABD2DE9F84F92461F461D
:101460000A698B68DDF828909A42B8BF1A46CAF814
:10147000002091F843300C46064613B10132CAF8F9
:101480000020226891065FD5DAF800300233CAF8EE
:101490000030226812F0060F11461DD1E168994212
:1014A000D8BF114618DD4FF0000804F1190B05E014
:1014B000E568DAF80030ED1A45450CDD01235A469F
:1014C00039463046C847013008F10108F0D14FF0E5
:1014D000FF30BDE8F88F216894F84330003B18BF17
:1014E00001238A060AD5E1185A1C302081F84300EE
:1014F000224494F8451082F84310023304F1430269
:1015000039463046C8470130E1D02368DAF8005048
:10151000216903F00603042BD4E902201BD08A4280
:1015200020DD4FF00008521A90441A34002501E0E3
:10153000454517DA0123224639463046C84701306F
:1015400005F10105F4D1C2E712F0060F0DD0003B02
:1015500018BF0123D2E7401B8A4220EAE078E2DC90
:101560000028E2DC0020BDE8F88FE168DAF80030FE
:101570009942D8BF114696DCAEE700BF2DE9F0478F
:10158000174684B00A7E0C9D0C460646984601F12B
:10159000430C002A35D0A2F15803D9B2202969D8CA
:1015A000202B67D8DFE813F0E600660066006600CF
:1015B0006600660066006600660066006600AC00B5
:1015C00070006600660066006600700066006600D7
:1015D0006600660021008300C60066006600B60053
:1015E0006600830066006600EC002B682268616973
:1015F000181D286010061B6802D4520600F1E08016
:1016000019600023E1462361CDF800803B4603AA20
:1016100021463046FFF720FF013020D023694A469B
:1016200039463046C047013019D02368E068DDF8FC
:101630000C909B0718D5484516DD002504F1190AC2
:1016400004E0E068A0EB0903AB420DDD0123524644
:1016500039463046C047013005F10105F1D14FF060
:10166000FF3004B0BDE8F0874845B8BF484604B035
:10167000BDE8F08784F84220012004F142090023EC
:10168000206184F84330BFE72A682368111D1806DB
:10169000296002D4590600F195801068014600289F
:1016A0006268C0F2938054484FF00A0E15E020683B
:1016B0002B6810F0800F53F8041B02D1400648BF7E
:1016C00089B26F2A4C482B6014BF4FF00A0E4FF0BE
:1016D000080E0023626884F84330002AA26051DBC0
:1016E000236823F00403236000294BD1002A7BD117
:1016F000E146BEF1080F56D0ACEB0903236183E746
:101700002B681A6804332B6004F1420984F84220E4
:101710000120B4E72B686268191D2960D3F8009096
:1017200000214846FFF7B4FD002863D0A0EB090074
:101730006060A4E7236843F02003236078222F48E9
:1017400084F845202A6813F0800F52F8041B03D157
:1017500013F0400F18BF89B22A60DA0744BF43F084
:101760002003236019B9236823F0200323604FF07E
:10177000100EAEE7582384F845301F482368E1E790
:101780002368DBE77546E146B1FBF5F305FB131A69
:101790000A46AA4210F80A1009F8011D1946F3D2A8
:1017A000BEF1080FA8D12368DD07A5D562682369BB
:1017B0009A42A1DC302309F8013C09F1FF399BE78B
:1017C00019801EE7B2F90010084668E72D20002AAC
:1017D000A26084F8430002DB23F0040323600A259F
:1017E00005484942AE46CEE7037884F8423004F11A
:1017F00042097EE7606842E74C1101086011010868
:10180000704700BF704700BF70B5B1F90C300C468F
:10181000990796B007D504F147030122C4E90432C1
:10182000236016B070BDB4F90E100029054629DBFF
:101830006A4600F011F9002822DB4FF48061284647
:10184000019EFFF7A3FB88B3A389206043F08003C8
:1018500006F47046A381B6F5005F4FF48063C4E9D7
:101860000403DED1B4F90E10284600F057F8002822
:10187000D7D0A38923F0030343F00103A381D0E76A
:10188000B4F90C3013F0800F14BF40264FF480667B
:1018900031462846FFF77AFB40B1A389206043F028
:1018A0008003C4E90406A38116B070BDB4F90C30FE
:1018B0009A05B6D423F0030304F1470243F0020370
:1018C0000121C4E90421A3812260AAE770B50C4676
:1018D000B1F90E10002996B015461E460FDB6A4678
:1018E00000F0BAF800280ADB019B03F47043A3F56B
:1018F0000053B3FA83F34FF480625B0908E0A289D6
:1019000012F0800F4FF0000314BF40224FF48062AA
:10191000002033602A6016B070BD00BF38B5074D97
:101920000022044608462A6006F0DAF9431C00D07B
:1019300038BD2B68002BFBD0236038BD300400205D
:1019400038B5074D0022044608462A6006F06EF9B5
:10195000431C00D038BD2B68002BFBD0236038BD62
:101960003004002010B50C46B1F90E1000F05EF8FE
:10197000002803DB636D0344636510BDA38923F472
:101980008053A38110BD00BF002070472DE9F041B6
:101990000C46B1F90C101F46CB05054616460BD474
:1019A00021F48051A1813B46B4F90E1032462846FD
:1019B000BDE8F04100F07CB8B4F90E10022300221B
:1019C00000F060F8B4F90C10EAE700BF10B50C465F
:1019D000B1F90E1000F056F8B4F90C30421C0EBFED
:1019E00023F4805343F480536065A38110BD00BF8E
:1019F000B1F90E1000F008B851F8043C181F002B84
:101A0000BCBF0B58C018704738B5074D00220446BC
:101A100008462A6006F05CF9431C00D038BD2B68EC
:101A2000002BFBD0236038BD3004002038B50C46B5
:101A3000084D8446114620461A4600232B60644612
:101A400006F028F9431C00D038BD2B68002BFBD0D2
:101A5000236038BD3004002070B50C46084D0346A5
:101A60000026204611461C462E6006F034F9431C21
:101A700000D070BD2B68002BFBD0236070BD00BF71
:101A80003004002038B50C46084D844611462046E7
:101A90001A4600232B60644606F024F9431C00D04C
:101AA00038BD2B68002BFBD0236038BD30040020EC
:101AB00038B50C46084D8446114620461A46002388
:101AC0002B60644606F0F6F8431C00D038BD2B6846
:101AD000002BFBD0236038BD300400207BB972B9E5
:101AE0000029BEBF00204FF0004106E008BF0028DB
:101AF0001CBF6FF000414FF0FF3000F09DB9ADF119
:101B0000080C6DE904CE002909DB002B1ADB00F07C
:101B100035F8DDF804E0DDE9022304B07047404207
:101B200061EB4101002B1BDB00F028F8DDF804E03D
:101B3000DDE9022304B0404261EB4101524263EB14
:101B400043037047524263EB430300F017F8DDF89C
:101B500004E0DDE9022304B0404261EB410170473B
:101B6000524263EB430300F009F8DDF804E0DDE9DD
:101B7000022304B0524263EB430370472DE9F04760
:101B8000089D0E4604460F46002B4AD194468C45CC
:101B9000B2FA82F260D942B1C2F12003974020FA32
:101BA00003F30CFA02FC1F4394404FEA1C4E1FFA49
:101BB0008CF6B7FBFEF1230C0EFB117743EA0743CB
:101BC00001FB06F098420AD91CEB030301F1FF3731
:101BD00080F01581984240F21281023963441B1A49
:101BE000A4B2B3FBFEF00EFB103344EA034400FB47
:101BF00006F6A6420AD91CEB040400F1FF3380F07C
:101C00000081A64240F2FD806444023840EA01406F
:101C1000A41B00211DB1D4400023C5E90043BDE849
:101C2000F0878B4205D90DB1C5E9000100210846B6
:101C3000F5E7B3FA83F1002946D1B34202D38242D9
:101C400000F2F580841A66EB030201201746002D8E
:101C5000E5D0C5E90047E2E7002A40F09380A1EB18
:101C60000C034FEA1C471FFA8CFE0121B3FBF7F669
:101C700007FB1630230C43EA00430EFB06F09842A4
:101C800008D91CEB030306F1FF3802D2984200F298
:101C9000D08046461B1AA4B2B3FBF7F007FB103303
:101CA00044EA03440EFB00FEA64508D91CEB0404DD
:101CB00000F1FF3302D2A64500F2B6801846A4EB2D
:101CC0000E0440EA0640A5E7C1F120078B4022FA46
:101CD00007FC4CEA030C06FA01FE20FA07F426FA88
:101CE00007F344EA0E0400FA01F84FEA1C404FEAF9
:101CF0001449B3FBF0FE1FFA8CF600FB1E3349EAD1
:101D000003430EFB06F9994502FA01F20BD91CEBCD
:101D100003030EF1FF3A80F08580994540F28280FE
:101D2000AEF1020E6344A3EB0909A4B2B9FBF0F3D0
:101D300000FB139944EA094403FB06F6A64208D9BE
:101D40001CEB040403F1FF3068D2A64266D9023BC3
:101D5000644443EA0E40A41BA0FB02E6B44273466F
:101D6000B14652D34FD05DB1B8EB030264EB090426
:101D700004FA07F722FA01F31F43CC40C5E90074C7
:101D800000214CE7C2F1200120FA01F30CFA02FC19
:101D900026FA01F1964033434FEA1C471FFA8CFEA6
:101DA000B1FBF7F007FB1016190C41EA064100FBE6
:101DB0000EF68E4204FA02F408D91CEB010100F180
:101DC000FF382DD28E422BD902386144891B9BB239
:101DD000B1FBF7F607FB161143EA014306FB0EF1D0
:101DE000994208D91CEB030306F1FF3814D299423B
:101DF00012D9023E63445B1A46EA004136E739468F
:101E0000EDE6184602E7F045ADD2BEEB020366EB05
:101E10000C060138B146A6E74646ECE7034698E7CC
:101E20004046D3E7D6467EE76444023847E7084693
:101E30000DE7023E63442DE7704700BF01292DE9FD
:101E4000F0415BD94FF00108C64600244FF0FF3542
:101E5000434608E0A3EB05081C464FF0010E04EBD7
:101E60000E03994210D900EB050CC75C1CF80E60FC
:101E7000B742EFD332D04FF001082546C64644445E
:101E800004EB0E039942EED80127C2F80080BE464B
:101E900000244FF0FF363B4607E09F1B1C464FF0E7
:101EA000010E04EB0E03994210D900EB060C10F85A
:101EB00003801CF80EC0E045EFD817D00127264656
:101EC000BE463C4404EB0E039942EED80136681C32
:101ED000864201D317603046BDE8F081C6450ABF8F
:101EE00074440EF1010E4FF0010EB8E7BE450ABF73
:101EF00074440EF1010E4FF0010ED2E701270026C7
:101F0000E8E700BF2DE9F04F174687B005AA8046E5
:101F10008946384619461C46FFF790FF059B0293F9
:101F200082460246F918384601F0A4FA00285FD12B
:101F300044F400630193029BE31A06460546A9EBAD
:101F400004010393CAF1010BA9421BD35645334642
:101F500038BF53469C4223D9581EEA18384442449D
:101F600002E001339C421BD012F801CB10F801EFC4
:101F7000E645F6D09C4213D95D441D44A9424FF07A
:101F80000006E3D2019908EB090001F0A1FA8144AF
:101F9000A9EB0401A942D9D2002007B0BDE8F08F17
:101FA00056450AF1FF336FD205EB0A02424407EBB4
:101FB0000A00009502E09E4211D0734610F801CD50
:101FC00012F8015DAC4503F1FF3EF4D0009D0133F2
:101FD00001369E4207D8029B039E1D44B4E701369A
:101FE0009E42009DF7D908EB050007B0BDE8F08FD1
:101FF000A4EB0A03534538BF5346013301930593BD
:1020000044F400630025A9EB040100930AF1FF36B4
:10201000CAF1010BA94216D3544520D905EB0A0297
:102020004244B819534602E001339C4217D012F8DB
:1020300001CB10F801EFE645F6D09C420FD95D4484
:102040001D44A942E8D2009908EB090001F040FACA
:102050008144A9EB0401A9429ED35445DED8BAF1CC
:10206000000FC0D005EB0A00404407EB0A0201E074
:10207000BB42B8D012F801ED10F801CDE645134689
:10208000F6D0019B1D44C5E75346A1E72DE9F04F6B
:102090009346ADF21C4D05AA80468A46584619461D
:1020A0001C46FFF7CBFE134681460DF2144243F85F
:1020B000044F9342FBD16CB1601E58440BF1FF32C8
:1020C00006AD12F8011FA31A013B5B44824245F89A
:1020D0002130F6D1059B01934A460BEB030158468C
:1020E00001F0C8F9002878D144F40063074605469A
:1020F000AAEB040E0293661EAE4511D308EB050C45
:1021000006AA1CF8063052F82330C3B11FB1019A59
:102110009A4288BFA31A1D44AE454FF00007EDD286
:1021200008EB0A00029901F0D3F98244AAEB040EED
:10213000AE45E3D200200DF21C4DBDE8F08F4F45B7
:102140003B4638BF4B469E4218D9591EEA1859449F
:102150004244009502E001339E420ED012F8010B7A
:1021600011F8015F8542F6D09E42009D06D9C9F163
:1021700001022A44D5180027BEE7009D4F4509F10A
:10218000FF3380F0818005EB090242440BEB09012B
:102190000095CDF80C9002E09F4213D04B4611F809
:1021A000015D12F8010D854203F1FF39F4D0009D65
:1021B000DDF80C90013301379F4209D8019B1D4483
:1021C000E71A99E701379F42009DDDF80C90F5D999
:1021D00060460DF21C4DBDE8F08FA4EB09034B45A2
:1021E00038BF4B4601330193059344F40063002547
:1021F000AAEB040E0093661EAE4509D308EB05005A
:1022000006AA835D52F823306BB11D44AE45F5D26A
:1022100008EB0A00009901F05BF98244AAEB040E76
:10222000AE45EBD286E7B14517D209F1FF3105EB98
:102230000902594442444B4602E00133B3420CD0F8
:1022400012F8017B11F801CFBC45F6D09E4204D9AB
:10225000C9F101022A44D518CEE7B9F1000F3FF4C5
:102260006AAF05EB090141440BEB090202E05B4553
:102270003FF461AF12F801CD11F8017DBC45134662
:10228000F5D0019B1D44C1E74B4694E72DE9F04191
:102290000D46097890B00446002954D06A78002A87
:1022A00000F08280AB78002B51D0E8782E680028AF
:1022B00000F081802B79002B56D0284600F060FD7D
:1022C000064640F40071204601F002F986425AD8D1
:1022D000FE2E00F28880801B27184022711C684661
:1022E000FDF7DAFF7EB16A1E5FFA86FC901912F8DC
:1022F000013F03F03F0340336B44A91A614490420D
:1023000003F8401CF3D1013CA35D03F03F034033CD
:102310006B4413F8403C1C44A74203D238E04444C9
:10232000A74235D314F806C00CF03F0C0CF1400363
:102330000DEB030C3246294620461CF8408C01F078
:1023400099F80028EBD1204610B0BDE8F081007864
:1023500042EA0142B8B140EA03439A42214614F8E6
:10236000010FF7D14C1EEEE7227862B131BA01E0DD
:102370008B421ED042EA0323204614F8012F002A84
:10238000F6D18B4215D00024204610B0BDE8F08174
:10239000BB5DB819002BF6D04FF4006101F098F83E
:1023A0000744A742AFD2EEE710B0BDE8F04100F01D
:1023B000BBB8C41EC7E7120442EA0162217842EAB0
:1023C00003230029DFD0024601E00029DBD041EAE7
:1023D0000200B3EB002F25464FEA002214F8011F3C
:1023E000F3D1AC1EAFE7014633462A46204610B073
:1023F000BDE8F0414AE600BF38B5124B1D682A6BB4
:1024000004461AB10023C2E9044338BD182000F085
:1024100043FD0246286378B101200021C2E904018E
:10242000094B0A480A499160C2E900030B239381D2
:102430000023C2E9044338BD064B0748462100F09B
:10244000DBF800BF0000002034126DE60E33CDAB88
:10245000ECDE0500BC170108D41701081C4B10B5B1
:102460001C68226B8AB113691A4954691A4803FB24
:1024700001F100FB0411A3FB0030013341EB00012B
:10248000C2E9043121F0004010BD182000F004FD25
:102490000246206388B1114C114B0E4811499160DE
:1024A0009FED097BC2E900430B2393810E4B01464C
:1024B00082ED047BC2E9043110BD0C4B0C48522163
:1024C00000F09AF8AFF30080010000000000000067
:1024D000000000202DF451582D7F954C0E33CDABCC
:1024E00034126DE6ECDE05002E7F954CBC1701081A
:1024F000D417010810B4044C03460A4620685DF85E
:10250000044B194600F02EBD0000002000B5054B1D
:1025100083B0014601AA186800F024FD03B05DF8FD
:1025200004FB00BF0000002011F0FF01034600F093
:10253000030239D08ABB026810B501EB012E0EEB05
:102540000E4E8EEA0204A2F1013323EA0203A4F143
:10255000013222EA0402134313F0803F0FD150F8F6
:10256000044F84EA0E0CA4F10133ACF1013223EAEA
:10257000040322EA0C02134313F0803FEFD00378E8
:1025800023B936E010F8013F002B32D09942F9D13F
:1025900010BD8A4228D09A0729D01A7818460133EC
:1025A000002AF6D110467047CAB90268A2F1013379
:1025B00023EA020313F0803F08D150F8042FA2F160
:1025C000013323EA020313F0803FF6D003785BB1B6
:1025D00010F8013F002BFBD17047990705D0184632
:1025E00013F8012B002AF8D170471846DDE718468A
:1025F000A1E7184610BD00BF00B50B4C2568144676
:10260000EE681A4685B003460D464CB10749009561
:10261000CDE901143046064900F090FC00F0A6FB1D
:1026200004490C46F3E700BF000000200018010831
:10263000101801080C18010808B513460022FFF70E
:10264000DBFF00BF10B51C4C002924689AB02DDBBD
:10265000009004904FF40270ADF80C004FF00000B1
:10266000199013D001394FF6FF7002910591ADF822
:102670000E006946204600F09DF9421C01DA8B23CA
:102680002360009B00221A701AB010BD4FF6FF7035
:1026900002910591ADF80E006946204600F08AF9D6
:1026A000431C01DA8B2323601AB010BD8B232360F7
:1026B0004FF0FF30F8E700BF0000002030B51446AF
:1026C000002C9BB005462EDB1A464FF40273ADF882
:1026D0000C304FF0000300910491199313D04FF682
:1026E000FF73013CADF80E3069461E9B02940594C1
:1026F00000F060F9421C01DA8B232B60009B002262
:102700001A701BB030BD4FF6FF73ADF80E3069463E
:102710001E9B0294059400F04DF9431C01DA8B23B3
:102720002B601BB030BD8B2303604FF0FF30F8E708
:1027300080EA0102844612F0030F4FD111F0030F1B
:1027400032D14DF8044D11F0040F51F8043B0BD079
:10275000A3F101329A4312F0803F04BF4CF8043BCE
:1027600051F8043B16D100BF51F8044BA3F10132DC
:102770009A4312F0803FA4F101320BD14CF8043B94
:10278000A24312F0803F04BF51F8043B4CF8044BC5
:10279000EAD023460CF8013B13F0FF0F4FEA332336
:1027A000F8D15DF8044B704711F0010F06D011F815
:1027B000012B0CF8012B002A08BF704711F0020F03
:1027C000BFD031F8022B12F0FF0F16BF2CF8022BEE
:1027D0008CF8002012F47F4FB3D1704711F8012B11
:1027E0000CF8012B002AF9D1704700BF2DE9F04702
:1027F0008F681D46AF420B680C46164636D8B1F9B5
:102800000CC01CF4906F0ED13D46184631462A4646
:10281000FEF79AFCA368DF1B2368A7602B44002007
:102820002360BDE8F0874A69096902EB42025F1A3A
:1028300002EBD2726B1C52103B44934292BF914602
:1028400099461A461CF4806F804611D01146FEF757
:102850009DFB824600B321693A46FDF775FDA389C9
:1028600023F4906343F08003A38105E02F46CCE777
:10287000FEF7C0FD824658B10AEB0703A9EB070734
:10288000A760C4F810A0C4F8149023602F46BCE7DA
:1028900021694046FEF7FAFBA3890C2243F040036E
:1028A000C8F800204FF0FF30A381BAE72DE9F04FC0
:1028B0009368176883B09246002B74D04FF0000BDA
:1028C0008B680A6881460C465D4645E0B4F90C30D9
:1028D00013F4906F2CD0D4E90401161A01EB4102D5
:1028E00002EBD272711C52102944914292BF904661
:1028F00088460A465B0539D511464846FEF746FB31
:10290000019000283DD032462169FDF71DFDA289C6
:10291000019B22F4906242F08002A2819819A8EBF8
:102920000606A660C4F8148023612060A8462E46DF
:1029300032465946FEF708FCDAF80810A368226808
:10294000A3EB08033244491BA3602260CAF80810B5
:1029500049B3D7E900B5083798461046002DF8D09E
:102960009D421E46B2D2A8462E46E1E701464846A1
:10297000FEF740FD03460028D0D121694846FEF706
:1029800085FBA3890C2243F04003C9F800204FF0D7
:10299000FF30A38100220023CAF80820CAF80430BF
:1029A00003B0BDE8F08F00200023CAF8043003B064
:1029B000BDE8F08F2DE9F04F1C468B891D069DB0B8
:1029C00088468146934603D50B69002B00F0F180C1
:1029D0000023099343F22003ADF829309BF800301F
:1029E0007D4D03940126002B73D0DA4603E01AF8DC
:1029F000013F002B75D0252BF9D1BAEB0B0473D115
:102A00009AF80020002A64D000234FF0FF32CDE96D
:102A100005230AF1010A049307938DF853301A93A2
:102A200005E0049A06FA03F31A430492A2465446B8
:102A3000052214F8011B2846FEF72AFCA346431B77
:102A40000028EED1049BD80644BF20228DF85320E5
:102A500019079AF8001044BF2B228DF853202A2919
:102A600050D1039A11680432002903927CDB07914C
:102A70009AF801102E295BD0584C03222046FEF70D
:102A800007FC38B1049B001B4022824013430BF12A
:102A9000010B04931BF8011B51488DF828100622E6
:102AA000FEF7F6FB002865D04E4B002B55D003AA4D
:102AB00000924D4B424604A94846AFF300800746BA
:102AC0007A1C06D0099B3B4409939BF80030002BED
:102AD0008BD1B8F80C305B067AD409981DB0BDE8EC
:102AE000F08FBAEB0B04F4D023465A4641464846D1
:102AF000FFF77CFE0130ECD0099B9AF800202344BC
:102B000009937FE7A1F13002092A88BFD346B1D8E3
:102B1000079B00E00134217803EB830302EB4303BE
:102B2000A1F13002092AF5D92E290793A346A3D192
:102B30009BF801102A2927D1039B9BF802101A68E1
:102B400005920433002A0BF102000393B8BF4FF043
:102B5000FF338346B8BF05938EE7039B073323F00B
:102B6000070308330393ADE7494243F0020307919B
:102B700004937DE703AA00921B4B424604A94846F2
:102B8000FEF7FCFC07469BE7A1F130020023092A6F
:102B900005930BF1010B3FF66FAF1BF8011F03EB21
:102BA000830302EB4303A1F13002092AF5D905930F
:102BB00062E74021FEF7EAF9C8F80000C8F8100003
:102BC00018B14023C8F8143002E70C23C9F80030CC
:102BD0004FF0FF3082E700BF3811010840110108B3
:102BE0004411010800000000ED2700082DE9F0471E
:102BF000074649480E46354616F801EB10F80EC058
:102C00001CF0080CF7D1BEF12D0F5AD0BEF12B0FDE
:102C100003BF96F800E06446AE1C64464BB9BEF1B3
:102C2000300F5CD00A23DFF8F4804FF0050A994694
:102C30000AE0102B4AD04FF0FF38B8FBF3F803FB43
:102C400008FA6FEA0A0A99460025284605E02CD0C2
:102C500009FB00C0012516F801EBAEF1300CBCF108
:102C6000090F06D9AEF1410CBCF1190F0BD8AEF12A
:102C7000370C634510DDB5F1FF3FECD04045E6D998
:102C80004FF0FF35E7E7AEF1610CBCF1190F03D847
:102C9000AEF1570C6345EEDC6B1C0BD004B1404227
:102CA0000AB165B91160BDE8F087D445D0DD4FF0B9
:102CB000FF35D0E722233B602846002AF3D0711E5F
:102CC000F0E796F800E00124AE1CA7E7BEF1300F54
:102CD00011D04FF00F0A6FF070489946B4E733787F
:102CE00003F0DF03582B0BD008234FF0070A6FF0D7
:102CF00060489946A8E7307800F0DF005828E8D10E
:102D00004FF0100996F801E04FF00F0A02366FF00D
:102D100070484B4698E700BFAD0F01089999991983
:102D200064E700BF10B4044C8446134620685DF885
:102D3000044B0A46614659E70000002010B4044CD9
:102D40008446134620685DF8044B0A4661464DE709
:102D50000000002010B4044C03460A4620685DF8C9
:102D6000044B194600F078B80000002008B5062092
:102D700000F058FC012004F087FF00BF00000000B5
:102D800030B490F800F020F007016FF0000C10F064
:102D9000070491F820F040F048804FF000046FF0F5
:102DA0000700D1E9002391F840F000F1080082FA11
:102DB0004CF2A4FA8CF283FA4CF3A2FA8CF34BBBDC
:102DC000D1E9022382FA4CF200F10800A4FA8CF255
:102DD00083FA4CF3A2FA8CF3E3B9D1E9042382FA23
:102DE0004CF200F10800A4FA8CF283FA4CF3A2FA38
:102DF0008CF37BB9D1E9062301F1200182FA4CF270
:102E000000F10800A4FA8CF283FA4CF3A2FA8CF3D6
:102E1000002BC6D0002A04BF04301A4612BAB2FAF8
:102E200082F200EBD20030BC7047D1E9002304F0FD
:102E30000305C4F100004FEAC50514F0040F91F832
:102E400040F00CFA05F562EA05021CBF63EA0503CF
:102E500062464FF00004AAE770B5A1FB025454B9D2
:102E60002946FEF793F8064618B12A462146FDF793
:102E700013FA304670BD0C2202600026F9E700BF4D
:102E800010B4044C03460A4620685DF8044B19460A
:102E9000FEF7B0BA00000020024B01461868FEF7AA
:102EA00075B800BF00000020024B01461868FEF70D
:102EB000EDB800BF0000002040EA01039B0710B5F9
:102EC00001D1032A17D8844601F1FF3E07E01EF81E
:102ED000011F03F8011B541E29B19C46224663467C
:102EE000002AF4D110BD9444002CFBD003F8011B40
:102EF0006345FBD110BD8E468446DEF80040A4F148
:102F0000013323EA040313F0803F71460EF1040EEF
:102F1000DAD1043A032A4CF8044BEED87146D3E7D1
:102F20000CB400B583B004AB53F8042B0193FDF748
:102F30000FFB03B05DF804EB02B070470EB410B5A0
:102F400083B005AB064C53F8042B0193014620686F
:102F5000FDF7FEFA03B0BDE8104003B0704700BFB4
:102F6000000000202DE9F047DFF8749007460E4678
:102F7000904600F0BFFAD9F800504DB133781C46A6
:102F80006BB1344602E014F8013F3BB13D2BFAD15E
:102F9000384600F0B1FA0020BDE8F087A41B28688D
:102FA0000028F5D02246314600F024F828B92868D8
:102FB000035D3D2B00EB040A04D055F8040F0028F4
:102FC000F0D1E5E7D9F80030EB1A9B103846C8F885
:102FD000003000F091FA0AF10100BDE8F08700BF6F
:102FE0006C00002000B583B001AAFFF7BBFF03B05F
:102FF0005DF804FB002A3ED030B584460446084301
:1030000080070B462ED1032A07D82BE0043A25D09F
:103010001EF0803F22D1032A22D92068194653F896
:10302000045BA0F1013EA842A4462EEA000E04F182
:103030000404EBD09CF800000C7884421DD1E646D5
:1030400068B11EF8010F11F8014FA2EB0E03A04268
:1030500003F1FF3311D11CEB0303F1D1002030BD8C
:10306000A44619469CF800000C78A04205D1012A1C
:10307000F4D0E646E4E710467047001B30BD00BFC1
:1030800002780B78012A28BF9A4240F0D8806DE977
:10309000044540EA0104CDE902676FF0000C4FEAF5
:1030A00044721AB380EA010414F0070F6BD100F0E8
:1030B000070420F0070004F0030521F007014FEAA0
:1030C000C505F0E8042314F0040FF1E804670CFAD6
:1030D00005F462EA040266EA04060BD063EA04031C
:1030E000624667EA0407664604E000BFF0E804238E
:1030F000F1E8046782FA4CF582EA0604A4FA8CF43B
:103100006CBB83FA4CF583EA0705A5FA8CF595B9F3
:1031100050E9022351E9026782FA4CF582EA06047B
:10312000A4FA8CF483FA4CF583EA0705A5FA8CF52A
:103130002543DBD09CB92DBAB5FA85F424F00704F9
:1031400027FA04F1DDE9026723FA04F303F0FF0034
:1031500001F0FF01FDE80445A0EB0100704724BA2F
:10316000B4FA84F424F0070426FA04F1DDE90267D6
:1031700022FA04F202F0FF0001F0FF01FDE804452D
:10318000A0EB0100704714F0030F3CD110F00304D2
:1031900028D150F8082B51F8083B82FA4CF582EA06
:1031A0000305A5FA8CF55DB950F8042C51F8043CE0
:1031B00082FA4CF582EA0305A5FA8CF5002DE8D0D9
:1031C0002DBAB5FA85F424F0070423FA04F122FAA3
:1031D00004F202F0FF0001F0FF01FDE80445A0EB5E
:1031E000010070474FEAC40420F0030050F8082B98
:1031F00021F0030151F8083B0CFA04F462EA0402DE
:1032000063EA0403C9E710F003041DD0A1EB040135
:1032100020F00300E40750F8042B06D012D28B787C
:103220005FFAA2F4E41A06D12BB1CB785FFAB2F4BC
:10323000E41A00D133B920465DF8104B7047A2EB79
:103240000300704701F1040150F8042BCC0721F072
:10325000030151F8043B48D824D222F07F4482FA7B
:103260004CF594EA1325A5FA8CF50AD165B951F805
:10327000043B84EA0204B4EB036F0ED150F8042B34
:10328000EBE74FEA132355E035F07F454DD1087841
:10329000FDE80445C0F1000070474FEA126203F0F8
:1032A000FF0347E002EA1C4482FA4CF594EA134516
:1032B000A5FA8CF50AD165B951F8043B84EA0204F9
:1032C000B4EB034F0CD150F8042BEBE74FEA134358
:1032D00030E015EA1C4528D10B884FEA124229E05C
:1032E0004FEA124203EA1C4324E002F0FF0482FA90
:1032F0004CF594EA1365A5FA8CF50AD165B951F835
:10330000043B84EA0204B4EB032F09D150F8042BE8
:10331000EBE74FEA13630DE015F0FF0F05D10B68E3
:103320004FEA122223F07F4304E04FF00000FDE853
:103330000445704712BA1BBA82FA4CF482EA0304BD
:10334000A4FA8CF5B5FA85F402FA04F203FA04F350
:103350004FEA1260FDE80445A0EB1360704700BF20
:1033600008B410B5002A9DB0044636DB4FF4027352
:10337000ADF814304FF000031B930291069120AB7F
:1033800017D0013A4FF6FF7104920792ADF816106C
:103390001F9A019302A9FFF70DFB421C01DA8B2350
:1033A0002360029B00221A701DB0BDE8104001B0DE
:1033B00070474FF6FF7104920792ADF816101F9AEE
:1033C000019302A9FFF7F6FA431C01DA8B2323606D
:1033D0001DB0BDE8104001B070478B2303604FF073
:1033E000FF30F5E70CB410B5214B00291C689CB0E8
:1033F00038DB4FF000034FF402721B93ADF814203A
:10340000029006901FAB18D001394FF6FF7204915D
:103410000791ADF8162002A91E9A01932046FFF7E6
:10342000C9FA421C01DA8B232360029B00221A7026
:103430001CB0BDE8104002B070474FF6FF72049117
:103440000791ADF8162002A91E9A01932046FFF7B6
:10345000B1FA431C01DA8B2323601CB0BDE8104095
:1034600002B070478B2323604FF0FF30F5E700BFB9
:1034700000000020032A30B415D941EA0004A40753
:1034800084460B4604D0541E0FE0043A032A08D9A0
:103490001946604653F8044B5CF8045BA542F4D02F
:1034A000F1E760461946541E7AB1431E01390219EC
:1034B00001E09A4209D013F8010F11F801CF6045DD
:1034C000F7D0A0EB0C0030BC7047002030BC704738
:1034D00071B1034600EB010C01E0634506D01A46CA
:1034E000013311780029F8D1101A7047181A704763
:1034F00008467047704700BF704700BF38B5C46BBF
:103500000CB1002038BD80210546FDF73FFD024685
:10351000E86330B1031F7C3243F8044F9342FBD180
:10352000EFE74FF0FF3038BD30B51F2983B00546B7
:1035300008D8C36B0C4653B153F8240043F8242039
:1035400003B030BD162303604FF0FF30F8E7802151
:103550000192FDF71BFD019AE86303460028F3D0B2
:10356000011F00F17C05002041F8040FA942FBD1A6
:10357000E2E700BF1F2938B505461ED8C26B0C46CE
:103580006AB152F8213053B1012B06D0591C10D02A
:10359000002142F8241020469847002038BD2846D4
:1035A00000F0F2F8224601462846BDE8384000F017
:1035B000D5B816230360012038BD162303604FF0F1
:1035C000FF3038BD1F292AD838B5C36B0C460546D5
:1035D000A3B153F8242003EB84034AB1511C0BD050
:1035E000012A07D0002520461D609047284638BD97
:1035F000012038BD032038BD022038BD8021FDF7F1
:10360000C5FC0346E86338B1021F00217C3042F854
:10361000041F8242FBD1DCE74FF0FF3038BD4FF092
:10362000FF30704738B5134B1F281D681DD8EA6B53
:10363000044662B152F820304BB1012B05D0591C21
:103640000FD0002142F820109847002038BD2846AE
:1036500000F09AF8224601462846BDE8384000F0BE
:103660007DB816232B60012038BD16232B604FF048
:10367000FF3038BD00000020114B1F2870B51E68B8
:1036800008D8F36B04460D464BB153F8240043F8B9
:10369000245070BD162333604FF0FF3070BD802181
:1036A0003046FDF773FC0346F0630028F4D0021F98
:1036B00000217C3042F8041F8242FBD1E5E700BFC5
:1036C0000000002038B50B4B1D68EC6B0CB10020DE
:1036D00038BD80212846FDF759FCE86338B1031F47
:1036E00000F17C0243F8044F9342FBD1EFE74FF027
:1036F000FF3038BD0000002038B5174B1F281D686B
:1037000026D80446E86BA0B150F8243000EB8400C2
:103710004BB15A1C0BD0012B07D000250560204669
:103720009847284638BD012038BD032038BD022007
:1037300038BD80212846FDF729FCE86340B1031F0E
:1037400000F17C01002243F8042F8B42FBD1DBE720
:103750004FF0FF3038BD00BF0000002070B50C46B0
:10376000084D03460026204611461C462E6004F0F4
:1037700083FA431C00D070BD2B68002BFBD0236064
:1037800070BD00BF3004002004F074BA08B50268B0
:10379000034B9A4200D008BD00F002FBFBE700BFDC
:1037A000002C014072B6FEE700B5A7B02822002128
:1037B0001CA8FCF771FD00211791189119911A911D
:1037C0001B91582201A8FCF767FD01221C924FF4BF
:1037D00080331D931F920222229223934FF4E01311
:1037E00024931CA800F0EEFAC0B90F23179302210E
:1037F0001891002319934FF480621A921B9317A813
:1038000000F02CFE60B9022301930023049301A869
:1038100000F048FF30B927B05DF804FBFFF7C2FFA6
:10382000FFF7C0FFFFF7BEFF08B500F0A7FAFFF7EC
:10383000BBFF00F00DF800F003F900F081F900F093
:1038400021F903F023FE00F0EBF803F041FEFEE760
:10385000F0B58BB00024059406940794089409945D
:10386000324B5A6942F400225A615A6902F400222A
:103870000192019A5A6942F480025A615A6902F42B
:1038800080020292029A5A6942F400325A615A69DD
:1038900002F400320392039A5A6942F480225A6178
:1038A0005B6903F480230493049B224620214FF09C
:1038B000904001F067F91E4D224641F2040128466E
:1038C00001F060F94FF4005305934FF4041306938D
:1038D000079405A9174801F065F8202305930126F0
:1038E00006960794089405A94FF0904001F05AF805
:1038F000022705970694079705A9284601F052F874
:103900000423059306960796089405A9284601F016
:1039100049F84FF48053059306960797089405A934
:10392000284601F03FF80BB0F0BD00BF0010024088
:10393000000400480008004800B5A5B02A4B0193D8
:103940002A4B00932A4B2B4A2B49012004F0A8FE56
:103950001FA804F027FE294B1F93294B2093294BC6
:103960002193294B22931FA804F038FE28B302A804
:1039700004F026FE0DF12C0E0DF1080CBCE80F0032
:10398000AEE80F00DCF80030CEF800300BAB0022C0
:10399000114610A804F044FD10AB1C4A1C4909A8AC
:1039A00004F088FD05F00CFB02461A4B09A91EA87D
:1039B00004F0BCFD00231D930EE091211648FCF796
:1039C0006DFDD4E7B2211548FCF768FD1D9B01335E
:1039D0001D930A2003F018FE00221DA91EA804F062
:1039E000FBFC0028EED1F1E75D810008278100088B
:1039F000198100080181000860340020997F0008C7
:103A0000B97F0008D97F0008198000080C18010848
:103A1000D8100108E4100108B0100108F8100108DE
:103A200008B5044A0021044803F078FD034B1860F0
:103A300008BD00BF40180108393900087033002064
:103A400000B583B00E4B5A6942F001025A615B69BE
:103A500003F001030193019B00220521102001F0D6
:103A60001FFA102001F02CFA00220521112001F08C
:103A700017FA112001F024FA03B05DF804FB00BF2F
:103A80000010024008B51148114B03604FF48273D7
:103A90004360002383604FF4E062C260022202614F
:103AA000012242614FF4007282612022C2610362EE
:103AB000436283620722C2620363436301F00EFA2A
:103AC00000B908BDFFF76EFEFBE700BF74330020AE
:103AD0000038004000B589B0002303930493059398
:103AE000069307930268144B9A4202D009B05DF81E
:103AF00004FB03F5EC33DA6942F48042DA61DA69F7
:103B000002F480420192019A5A6942F480225A6179
:103B10005B6903F480230293029B4FF46043039399
:103B200002230493032306930523079303A9034861
:103B300000F038FFDAE700BF00380040000400481A
:103B400008B50B480B4B03604FF4E133436000238F
:103B50008360C36003610C2242618361C3610362BD
:103B6000436202F032F900B908BDFFF71BFEFBE724
:103B7000603400200044004010B588B00023039357
:103B8000049305930693079302682F4B9A4201D042
:103B900008B010BD044603F5E633DA6942F400329A
:103BA000DA61DA6902F400320192019A5A6942F448
:103BB00000325A615B6903F400330293029B0C23C9
:103BC0000393022304930723079303A94FF0904024
:103BD00000F0E8FE1D481E4B036000234360836035
:103BE0008022C26003614361202383614FF440530C
:103BF000C36101F009F800BB144B63675C621548B0
:103C0000154B036010234360002383608022C26051
:103C10000361436183614FF44053C36100F0F4FFDB
:103C200070B90C4B23675C6200220521262001F04D
:103C300037F9262001F044F9AAE7FFF7B3FDDBE7E7
:103C4000FFF7B0FDEDE700BF004400401C3400204A
:103C50006C000240D833002080000240FEE7FEE7FF
:103C6000FEE7FEE7FEE7704708B5024801F076F888
:103C700008BD00BF1C34002008B5024801F06EF8F2
:103C800008BD00BFD833002008B5024801F0E6F9AE
:103C900008BD00BFE834002008B5024801F08AFCE6
:103CA00008BD00BF6034002000B583B00D4B9A6999
:103CB00042F001029A619A6902F001020092009AB0
:103CC000DA6942F08052DA61DB6903F080530193D4
:103CD000019B00220F216FF0010001F0E1F803B019
:103CE0005DF804FB0010024030B589B004461E4B5D
:103CF0009A6942F400629A619B6903F4006301933C
:103D0000019B02A903A800F0AFFC00F097FC174A42
:103D1000A2FB00239B0C013B1548164A026040F2AF
:103D2000E732C2604360002303618360836101F076
:103D3000C3FA054610B1284609B030BD0C4801F061
:103D400043F905460028F6D1192001F0B9F80F2CE7
:103D500001D90125EFE700222146192001F0A0F842
:103D6000054B1C60E7E700BF0010024083DE1B43E9
:103D7000E8340020002C01406000002008B5074A0C
:103D8000136843F010031360032001F077F80F204D
:103D9000FFF7AAFFFFF788FF002008BD00200240C0
:103DA000034A1168034B1B780B441360704700BF34
:103DB000343500205C000020014B1868704700BFBC
:103DC00034350020002800F0088370B582B0044626
:103DD000036813F0010F3DD0B24B5B6803F00C0396
:103DE000042B20D0AF4B5B6803F00C03082B13D0DF
:103DF0006368B3F5803F6AD0002B40F08D8003F1FB
:103E0000804303F504331A6822F480321A601A687A
:103E100022F480221A605FE0A24B5B6803F4C03397
:103E2000B3F5803FE4D14FF4003393FAA3F39D4BF5
:103E300019684FF4003393FAA3F3B3FA83F303F052
:103E40001F03012202FA03F30B4203D06368002B25
:103E500000F0C582236813F0020F00F0BF80914B81
:103E60005B6813F00C0F00F097808E4B5B6803F0DB
:103E70000C03082B00F08880E368002B00F0EB8037
:103E8000012292FAA2F3B3FA83F303F1845303F508
:103E900084139B001A60FFF78FFF0546022393FAF5
:103EA000A3F3804B1968022393FAA3F3B3FA83F3C5
:103EB00003F01F03012202FA03F30B4240F0BD801E
:103EC000FFF77AFF401B0228E8D9032090E2754AE9
:103ED000136843F4803313606368002B36D0FFF718
:103EE0006BFF05464FF4003393FAA3F36D4B19684B
:103EF0004FF4003393FAA3F3B3FA83F303F01F03F1
:103F0000012202FA03F30B42A4D1FFF755FF401B35
:103F10006428E7D903206BE2B3F5A02F09D0614BE9
:103F20001A6822F480321A601A6822F480221A6019
:103F3000D2E703F18043A3F53C331A6842F48022B0
:103F40001A601A6842F480321A60C5E7FFF734FF3E
:103F500005464FF4003393FAA3F3524B19684FF41C
:103F6000003393FAA3F3B3FA83F303F01F030122A0
:103F700002FA03F30B423FF46DAFFFF71DFF401B46
:103F80006428E6D9032033E2464B5B6803F4C03370
:103F9000B3F5004F7FF470AF022393FAA3F3414BC4
:103FA0001968022393FAA3F3B3FA83F303F01F0310
:103FB000012202FA03F30B4203D0E368934240F07C
:103FC00010823848036823F0F8032169F82292FA36
:103FD000A2F2B2FA82F291400B430360236813F01D
:103FE000080F00F08B806369002B5FD0012191FAEC
:103FF000A1F2B2FA82F22C4B13449B001960FFF736
:10400000DBFE0546022393FAA3F293FAA3F293FA96
:10401000A3F2244A516A93FAA3F3B3FA83F303F0A9
:104020001F03012202FA03F30B4267D1FFF7C4FE1C
:10403000401B0228E6D90320DAE11A48036823F07E
:10404000F8032169F82292FAA2F2B2FA82F29140C0
:104050000B430360C2E7012393FAA3F3B3FA83F39C
:1040600003F1845303F584139B0000221A60FFF7C9
:10407000A3FE0546022393FAA3F30A4B1968022311
:1040800093FAA3F3B3FA83F303F01F03012202FAB6
:1040900003F30B42A2D0FFF78FFE401B0228E9D9A1
:1040A0000320A5E10010024020819010012292FA25
:1040B000A2F2B2FA82F29C4B13449B0000221A60D7
:1040C000FFF77AFE0546022393FAA3F293FAA3F2CE
:1040D00093FAA3F2954A516A93FAA3F3B3FA83F3DE
:1040E00003F01F03012202FA03F30B4206D0FFF78D
:1040F00063FE401B0228E6D9032079E1236813F010
:10410000040F00F0A980894BDB6913F0805F20D198
:10411000864BDA6942F08052DA61DB6903F0805342
:104120000193019B0125824B1B6813F4807F12D001
:10413000A368012B23D073BB03F1804303F5043341
:104140001A6A22F001021A621A6A22F004021A6242
:104150001AE00025E7E7764A136843F4807313609A
:10416000FFF72AFE0646724B1B6813F4807FDFD1EF
:10417000FFF722FE801B6428F5D9032038E16B4A43
:10418000136A43F001031362A368002B3CD0FFF7CE
:1041900013FE06462EE0052B09D0644B1A6A22F066
:1041A00001021A621A6A22F004021A62ECE75F4BFB
:1041B0001A6A42F004021A621A6A42F001021A6292
:1041C000E2E7022393FAA3F3584B596A022393FAC6
:1041D000A3F3B3FA83F303F01F03012202FA03F3FC
:1041E000194238D1FFF7E8FD801B41F2883398422D
:1041F00000F2F980022393FAA3F293FAA3F3002BBF
:10420000DFD04A4B196AE1E7FFF7D6FD064618E012
:10421000022393FAA3F3454B596A022393FAA3F3BB
:10422000B3FA83F303F01F03012202FA03F31942E6
:1042300011D0FFF7C1FD801B41F28833984200F294
:10424000D480022393FAA3F293FAA3F3002BDFD0D6
:10425000364B196AE1E7B5BBA369002B00F0C780B4
:10426000324A526802F00C02082A00F0A080022BA9
:104270002FD04FF0807393FAA3F3B3FA83F303F1D3
:10428000845303F584139B0000221A60FFF794FD0A
:1042900004464FF0007393FAA3F3244B19684FF0D0
:1042A000007393FAA3F3B3FA83F303F01F0301221D
:1042B00002FA03F3194278D0FFF77EFD001B0228B3
:1042C000E7D9032094E0194AD36923F08053D361DE
:1042D000C2E74FF0807393FAA3F3B3FA83F303F1C9
:1042E000845303F584139B0000221A60FFF764FDDA
:1042F00005464FF0007393FAA3F30C4B19684FF087
:10430000007393FAA3F3B3FA83F303F01F030122BC
:1043100002FA03F319420DD0FFF74EFD401B0228AD
:10432000E7D9032064E000BF208190100010024014
:1043300000700040334AD36A23F00F03616A0B43D5
:10434000D362536823F47613216AE06901430B4377
:1043500053604FF0807393FAA3F3B3FA83F303F13E
:10436000845303F584139B0001221A60FFF724FD98
:1043700004464FF0007393FAA3F3224B19684FF0F1
:10438000007393FAA3F3B3FA83F303F01F0301223C
:1043900002FA03F3194206D1FFF70EFD001B0228B3
:1043A000E7D9032024E0002022E0002020E0012BB8
:1043B00020D0144A5368D06A03F4C031E2699142B4
:1043C0001AD103F47013226A934217D100F00F0040
:1043D000636A984214D100200AE00120704701204E
:1043E00006E0012004E0032002E0032000E00020BA
:1043F00002B070BD0120FBE70120F9E70120F7E7DB
:104400000120F5E700100240104B5B6803F00C023E
:10441000082A01D00E487047C3F383420D49885CD7
:104420000A4AD26A02F00F020B498A5C13F4803FF9
:1044300005D0074BB3FBF2F303FB00F07047044BCE
:10444000B3FBF2F303FB00F0704700BF0010024023
:1044500000127A007418010864180108002800F09E
:10446000BE8070B50D460446614B1B6803F0070320
:104470008B420BD25E4A136823F007030B43136091
:10448000136803F007038B4240F0AB80236813F0FE
:10449000020F06D0574A536823F0F003A1680B437C
:1044A0005360236813F0010F5AD06368012B2DD09D
:1044B000022B40D0022292FAA2F24E4A1068022247
:1044C00092FAA2F2B2FA82F202F01F02012101FA7C
:1044D00002F2104200F0878046494A6822F0030247
:1044E00013434B60FFF768FC0646424B5B6803F0E2
:1044F0000C036268B3EB820F32D0FFF75DFC801BC8
:1045000041F288339842F0D9032067E04FF400323B
:1045100092FAA2F2374A10684FF4003292FAA2F2ED
:10452000B2FA82F202F01F02012101FA02F2024203
:10453000D2D1012052E04FF0007292FAA2F22D4A3D
:1045400010684FF0007292FAA2F2B2FA82F202F010
:104550001F02012101FA02F21042BDD101203DE00B
:10456000234B1B6803F00703AB420AD9204A1368A8
:1045700023F007032B431360136803F00703AB42D8
:1045800033D1236813F0040F06D01A4A536823F47A
:10459000E063E1680B435360236813F0080F07D012
:1045A000144A536823F46053216943EAC1035360FA
:1045B000FFF72AFF0F4B5B6803F0F003F02292FA3B
:1045C000A2F2B2FA82F2D3400B4AD35CD8400B4B32
:1045D00018600B4B1868FFF787FB002070BD0120A7
:1045E00070470120FAE70120F8E70120F6E700BF55
:1045F00000200240001002408C18010864000020D6
:1046000060000020014B1868704700BF6400002064
:1046100008B5FFF7F7FF074B5B6803F4E0634FF45F
:10462000E06292FAA2F2B2FA82F2D340024AD35C7A
:10463000D84008BD001002408418010808B5FFF7F3
:10464000E1FF074B5B6803F460534FF4605292FA4A
:10465000A2F2B2FA82F2D340024AD35CD84008BD3B
:1046600000100240841801080F2303600B4B5A68A6
:1046700002F0030242605A6802F0F00282605A6857
:1046800002F4E062C2605B68DB0803F4E06303618C
:10469000034B1B6803F007030B60704700100240D8
:1046A00000200240F0B583B00446036813F4803F55
:1046B00048D0A14BDB6913F0805F40F021819E4B15
:1046C000DA6942F08052DA61DB6903F080530193CA
:1046D000019B0125994B1B6813F4807F00F0128128
:1046E000954B1B6A13F4407322D0626802F4407247
:1046F0009A421DD09048016A21F440764FF48033ED
:1047000093FAA3F2B2FA82F28D4F3A4492004FF03C
:10471000010CC2F800C093FAA3F3B3FA83F33B444D
:104720009B0000221A60066211F0010F40F0FF802A
:10473000814A136A23F4407361680B431362002DAE
:1047400040F02381236813F0010F06D07A4A136BDF
:1047500023F00303A1680B431363236813F0020FD4
:1047600006D0754A136B23F44033E1680B4313639F
:10477000236813F0040F06D06F4A136B23F4402311
:1047800021690B431363236813F0200F06D06A4A94
:10479000136B23F01003E1690B431363236813F4D5
:1047A000003F06D0644A536823F48003616D0B43D5
:1047B0005360236813F0400F06D05F4A136B23F059
:1047C0002003216A0B431363236813F4802F06D060
:1047D000594A136B23F04003616A0B431363236848
:1047E00013F0080F06D0544A136B23F44013616989
:1047F0000B431363236813F0100F06D04E4A136B5C
:1048000023F44003A1690B431363236813F4007F6F
:1048100006D0494A536823F40003216B0B435360CD
:10482000236813F0800F06D0434AD36A23F4F87349
:10483000A16A0B43D362236813F4807F06D03E4AFB
:10484000D36A23F47853E16A0B43D362236813F4E9
:10485000805F06D0384A136B23F48073616B0B437F
:104860001363236813F4005F06D0334A136B23F4F9
:104870000073216C0B431363236813F4801F06D06D
:104880002D4A136B23F08073A16B0B4313632368D2
:1048900013F4001F06D0284A136B23F00073E16B5A
:1048A0000B431363236813F4800F06D0224A136B63
:1048B00023F48063616C0B431363236813F4000FCC
:1048C00006D01D4A136B23F40063A16C0B431363E2
:1048D000236813F0807F06D0174A136B23F400532C
:1048E000E16C0B431363236813F0007F54D0124A2A
:1048F000136B23F40043216D0B43136300204CE042
:104900000025E7E60D4A136843F480731360FFF750
:1049100053FA0646094B1B6813F4807F7FF4E0AE20
:10492000FFF74AFA801B6428F4D9032035E0FFF72B
:1049300043FA06461FE000BF00100240007000402E
:1049400000819010022393FAA3F3154B596A0223B6
:1049500093FAA3F3B3FA83F303F01F03012202FADD
:1049600003F30B427FF4E4AEFFF726FA801B41F21B
:10497000883398420ED8022393FAA3F293FAA3F352
:10498000002BDFD0064B196AE1E7D36923F080538F
:10499000D361D7E6032000E0002003B0F0BD00BFE4
:1049A00000100240F0B583B0002362E085685E002D
:1049B0000324B44025EA0405CC68B4402C43846049
:1049C000456825EA0C054C68C4F300149C402C4350
:1049D00044605FE0DD08083550F8254003F0070C1F
:1049E0004FEA8C0C4FF00F0E0EFA0CFE24EA0E0E5E
:1049F0000C6904FA0CF444EA0E0440F8254060E027
:104A0000062400E0002404FA0EF42C430CF1020CFE
:104A1000584D45F82C40584CA568D44325EA020669
:104A20004F6817F4801F01D042EA0506524DAE6070
:104A3000ED6804EA05064F6817F4001F01D042EA4A
:104A400005064D4DEE606D6804EA05064F6817F4E3
:104A5000003F01D042EA0506474D6E602D682C40AC
:104A60004E6816F4803F01D042EA0504424A1460C1
:104A700001330A6832FA03F47AD04FF0010C0CFAD1
:104A800003FC1CEA0202F3D04C6804F00304013C6E
:104A9000012C8BD94C6804F00304032C0CD0C4689F
:104AA0005D004FF0030C0CFA05FC24EA0C0C8C683A
:104AB000AC4044EA0C04C4604C6804F00304022CCB
:104AC00088D004684FEA430E4FF0030C0CFA0EFC3A
:104AD00024EA0C0C4C6804F0030404FA0EF444EAD3
:104AE0000C0404604C6814F4403FC1D0234CA56909
:104AF00045F00105A561A46904F001040194019C3D
:104B00004FEA930C0CF102051A4C54F8255003F0AF
:104B1000030E4FEA8E0E0F2404FA0EF425EA040564
:104B2000B0F1904F3FF46EAF154CA04216D004F593
:104B30008064A04214D004F58064A04212D004F531
:104B40008064A04210D004F58064A0420ED004F529
:104B50008064A0423FF454AF072454E7012452E795
:104B6000022450E703244EE704244CE705244AE7D7
:104B700003B0F0BD000001400004014000100240FD
:104B8000000400480AB1816170478162704730B407
:104B90000124056CAC40C56B6C60046863604368BD
:104BA000102B05D0036899600368DA6030BC704749
:104BB00003689A600368D960F8E7000002680C4B4C
:104BC0009A420AD80B4B13440B4AA2FB03231B093E
:104BD0009B000364094BC3637047094B1344064AA7
:104BE000A2FB03231B099B000364064BC3637047AE
:104BF00007040240F8FFFDBFCDCCCCCC0000024042
:104C0000F8FBFDBF0004024010B310B504460223B8
:104C100080F8213001680A686FF30D1243688068DC
:104C20000343E06803432069034360690343A069C9
:104C30000343E069034313430B602046FFF7BEFFC5
:104C40000020A063012384F8213084F8200010BDE7
:104C50000120704738B5044690F82000012831D073
:104C6000012084F8200094F82100012804D00023BA
:104C700084F82030022038BD022084F82100002072
:104C8000A0632568286820F0010028602046FFF70F
:104C90007EFFE36A5BB12268136843F00E03136082
:104CA0002268136843F0010313600020E3E72268E1
:104CB000136843F00A0313602268136823F00403A7
:104CC0001360EDE70220D6E7034600B390F82120F9
:104CD000022A06D004228263002280F820200120CC
:104CE000704701680A6822F00E020A6001680A68CB
:104CF00022F001020A60026CC06B012101FA02F28B
:104D0000426083F82110002083F8200070470120C2
:104D1000704708B590F82130022B03D00423836339
:104D2000012008BD0268136823F00E0313600268B7
:104D3000136823F001031360036CC16B012202FAB4
:104D400003F34B6080F82120002380F82030436B70
:104D500013B198470020E4E70020E2E738B5C36BC1
:104D60001A6804682568016C04238B40134213D031
:104D700015F0040F10D0236813F0200F03D123681F
:104D800023F004032360016CC26B04238B40536047
:104D9000C36A03B1984738BD02238B4013421AD02F
:104DA00015F0020F17D0236813F0200F06D12368E7
:104DB00023F00A032360012380F82130016CC26BC9
:104DC00002238B405360002380F82030836A002B3D
:104DD000E1D09847DFE708238B401342DBD015F082
:104DE000080FD8D0236823F00E032360026CC16B38
:104DF000012303FA02F24A60836380F82130002322
:104E000080F82030036B002BC5D09847C3E7806B38
:104E100070470000002808DB0901C9B200F16040BA
:104E200000F5614080F80013704700F00F000901A1
:104E3000C9B2014B1954704714ED00E000B500F001
:104E40000700C0F1070CBCF1040F28BF4FF0040CA1
:104E5000031D062B0FD9C31E4FF0FF3E0EFA0CF0B8
:104E600021EA000199400EFA03FE22EA0E0241EA0D
:104E700002005DF804FB0023EEE70000074AD36858
:104E800023F4E0631B041B0C000200F4E060034306
:104E900043F0BF6343F40033D360704700ED00E09C
:104EA00010B50446054BD868C0F30220FFF7C6FFD3
:104EB00001462046FFF7AEFF10BD00BF00ED00E049
:104EC000002807DB00F01F02400901239340024A3B
:104ED00042F82030704700BF00E100E000286FD0AA
:104EE00010B50446436A33B94368B3F5827F05D0F1
:104EF0000023C36102E00023036143610023A36236
:104F000094F85D30002B52D0022384F85D30226883
:104F1000136823F040031360E368B3F5E06F4CD9E6
:104F20000022B3F5706F04D0B3F5E06F01D0002319
:104F3000A362636803F48273A16801F404410B4324
:104F4000216901F002010B43616901F001010B438A
:104F5000A16901F400710B43E16901F038010B43D1
:104F6000216A01F080010B43A16A01F4005120681D
:104F70000B430360638B03F00403616A01F01001CB
:104F80000B43616B01F008010B43E16801F47061B0
:104F90000B43216813434B602268D36923F40063F9
:104FA000D36100202066012384F85D3010BD84F8B1
:104FB0005C302046FEF78EFDA6E74FF48052B0E746
:104FC000012070477047000090F83D30DBB2012BA4
:104FD00036D1022380F83D300268D36843F00103E4
:104FE000D3600368194A93421CD0B3F1804F19D0A3
:104FF000A2F59432934215D002F58062934211D00B
:1050000002F5963293420DD002F54062934209D0E8
:1050100002F58052934205D01A6842F001021A60EC
:105020000020704799680A4A0A40062A0AD0B2F559
:10503000803F09D01A6842F001021A6000207047D0
:10504000012070470020704700207047002C01406D
:1050500007000100704770477047704770B50446FD
:105060000368DE681D6915F0020F10D016F0020FFC
:105070000DD06FF002021A610123037703689B6968
:1050800013F0030F64D0FFF7E6FF0023237715F03A
:10509000040F12D016F0040F0FD023686FF0040233
:1050A0001A610223237723689B6913F4407F55D04C
:1050B0002046FFF7D0FF0023237715F0080F12D00A
:1050C00016F0080F0FD023686FF008021A6104234E
:1050D00023772368DB6913F0030F46D02046FFF7E0
:1050E000BAFF0023237715F0100F12D016F0100F1F
:1050F0000FD023686FF010021A610823237723680A
:10510000DB6913F4407F37D02046FFF7A4FF00236C
:10511000237715F0010F02D016F0010F33D115F0EF
:10512000800F02D016F0800F35D115F4807F02D0A9
:1051300016F0800F37D115F0400F02D016F0400F57
:1051400039D115F0200F02D016F0200F3BD170BDE1
:10515000FFF780FF2046FFF77FFF96E72046FFF727
:1051600079FF2046FFF778FFA5E72046FFF772FF9B
:105170002046FFF771FFB4E72046FFF76BFF20469C
:10518000FFF76AFFC3E723686FF001021A61204648
:10519000FEF7FCFAC3E723686FF080021A6120462D
:1051A00000F0BBF8C1E723686FF480721A612046F3
:1051B00000F0B4F8BFE723686FF040021A612046A0
:1051C000FFF74BFFBDE723686FF020021A6120460E
:1051D00000F0A2F8BBE700000368364A904212D004
:1051E000B0F1804F0FD0A2F5943290420BD002F56F
:1051F0008062904207D002F59632904203D002F5C9
:10520000E052904203D123F070034A681343294AC5
:1052100090421ED0B0F1804F1BD0A2F59432904244
:1052200017D002F58062904213D002F59632904278
:105230000FD002F5406290420BD002F5806290429E
:1052400007D002F58062904203D002F500629042DE
:1052500003D123F44073CA68134323F080034A69DF
:10526000134303608B68C3620B688362114B9842DF
:1052700013D003F5006398420FD003F540639842C2
:105280000BD003F58063984207D003F58063984202
:1052900003D003F50063984201D10B690363012336
:1052A0004361036913F0010F03D0036923F0010385
:1052B00003617047002C014060B310B5044690F8BC
:1052C0003D3013B3022384F83D30214651F8040BDE
:1052D000FFF782FF012384F8483084F83E3084F8D9
:1052E0003F3084F8403084F8413084F8423084F80C
:1052F000433084F8443084F8453084F8463084F8EC
:10530000473084F83D30002010BD80F83C30FFF776
:1053100059FED7E701207047704770477047026811
:1053200052E8003F23F0C00342E800310029F6D1E3
:105330002023C3677047026852E8003F23F490734C
:1053400042E800310029F6D1026802F1080353E86F
:10535000003F23F00103083242E800310029F3D175
:10536000036E012B06D02023C0F880300023036693
:1053700083667047026852E8003F23F0100342E85A
:1053800000310029F6D1EEE71346C26F202A3BD147
:1053900010B50446002939D0002B39D0C164A0F8DB
:1053A0005030A0F852300022C0F884202122C26779
:1053B000026FC2B117499162026F1749D162026F41
:1053C00016491163026F0021516302682832C16CD3
:1053D000006FFFF73FFC30B11023C4F88430202366
:1053E000E36701200FE0236840221A62226802F17D
:1053F000080353E8003F43F08003083242E80031DD
:105400000029F3D1002010BD022070470120FAE7E7
:105410000120F8E7CF540008375500084755000829
:1054200038B50446C26FD0F8805003689B6813F00B
:10543000800F01D0212A08D023689B6813F0400F09
:1054400042D0222D20D000203FE0226802F1080344
:1054500053E8003F23F08003083242E8003100297E
:10546000F3D1206F10B1FFF72FFC18B92046FFF7DA
:1054700056FFE1E7206FFFF7CAFC2028F6D1102382
:10548000C4F88430032020E0226802F1080353E8C6
:10549000003F23F04003083242E800310029F3D1F5
:1054A000606F10B1FFF710FC20B92046FFF743FFF3
:1054B00000200AE0606FFFF7AAFC2028F5D1102336
:1054C000C4F88430032000E0002038BD704708B5E0
:1054D000416A8369202B18D00023A1F852300A6852
:1054E00002F1080353E8003F23F08003083242E84A
:1054F00000300028F3D10A6852E8003F43F040032F
:1055000042E800300028F6D108BD0846FFF7DEFF6C
:10551000FAE708B5026852E8003F23F0400342E88A
:1055200000310029F6D12023C3670023C366FFF7AB
:10553000CDFF08BD704708B5406AFFF7FBFF08BD07
:1055400070477047704738B5446AE26FD4F88050AE
:1055500023689B6813F0800F01D0212A10D02368A4
:105560009B6813F0400F01D0222D10D0D4F8843066
:1055700043F01003C4F884302046FFF7E3FF38BD42
:105580000023A4F852302046FFF7C9FEE7E70023C6
:10559000A4F85A302046FFF7CEFEE7E708B5406A88
:1055A0000023A0F85A30A0F85230FFF7CBFF08BD17
:1055B0007047000070B504460268D36911689068AE
:1055C00040F60F0C13EA0C0F0AD113F0200F0DD088
:1055D00011F0200F0AD0A36E0BB3204698471EE0AF
:1055E00010F001051CD1AB4E314219D1256E012DB1
:1055F00000F0A48013F4801F03D010F4800F40F05B
:10560000368113F0800F03D011F0800F40F0368107
:1056100013F0400F03D011F0400F40F0368170BD01
:1056200013F0010F09D011F4807F06D00120106221
:10563000D4F884200243C4F8842013F0020F09D068
:1056400045B1226802201062D4F8842042F004029E
:10565000C4F8842013F0040F09D045B12268042057
:105660001062D4F8842042F00202C4F8842013F0BF
:10567000080F0BD011F0200F00D13DB12268082097
:105680001062D4F884200243C4F8842013F4006F1D
:105690000CD011F0806F09D022684FF400601062C6
:1056A000D4F8842042F02002C4F88420D4F8842066
:1056B000002AB4D013F0200F06D011F0200F03D031
:1056C000A36E0BB120469847D4F8842023689B68CA
:1056D00013F0400F02D112F0280F28D02046FFF718
:1056E0002AFE23689B6813F0400F1CD0226802F149
:1056F000080353E8003F23F04003083242E800313A
:105700000029F3D1636F53B1634A5A63606FFFF7A7
:1057100000FB002883D0606F436B98477FE72046EB
:10572000FFF710FF7BE72046FFF70CFF77E72046E7
:10573000FFF708FF0023C4F8843070E713F0100F60
:105740003FF458AF11F0100F3FF454AF1023136221
:1057500023689B6813F0400F4FD0626F13685B683B
:105760009BB2002B3FF45BAFB4F8581099427FF620
:1057700056AFA4F85A309369202B31D0226852E8F2
:10578000003F23F4807342E800310029F6D12268FB
:1057900002F1080353E8003F23F00103083242E816
:1057A00000310029F3D1226802F1080353E8003FD9
:1057B00023F04003083242E800310029F3D12023CE
:1057C000C4F8803000232366226852E8003F23F0AB
:1057D000100342E800310029F6D1606FFFF774FA38
:1057E00002236366B4F85810B4F85A309BB2C91A51
:1057F00089B22046FFF7DCFE11E7B4F85810B4F880
:105800005A309BB2C91A89B2B4F85A309BB2002BF5
:105810003FF405AF00293FF402AF226852E8003F91
:1058200023F4907342E800300028F6D1226802F198
:10583000080353E8003F23F00103083242E8003038
:105840000028F3D12023C4F8803000232366A36608
:10585000226852E8003F23F0100342E8003000289D
:10586000F6D1022363662046FFF7A2FED7E64FF487
:1058700080131362204600F04DFBD0E6E36E002B50
:105880003FF4CDAE20469847C9E62046FFF741FEDB
:10589000C5E600BF200100049D55000808B5406A18
:1058A00001234366036E012B02D0FFF74AFE08BDB9
:1058B000B0F858104908FFF77BFEF8E708B5034633
:1058C000406A9B69202B29D00023A0F85A30026837
:1058D00052E8003F23F4807342E800310029F6D1FA
:1058E000026802F1080353E8003F23F00103083285
:1058F00042E800310029F3D1026802F1080353E8BD
:10590000003F23F04003083242E800310029F3D180
:105910002023C0F88030036E012B07D0002343669C
:10592000036E012B0CD0FFF70BFE08BD026852E896
:10593000003F23F0100342E800310029F6D1EDE7E3
:10594000B0F85810FFF734FEEFE7000010B504463A
:1059500083680269134342691343C26913430168B0
:105960000868864A02401A430A602268536823F492
:105970004053E1680B435360A269236A1A432168CC
:105980008B6823F4306313438B6023687C4A934213
:105990001BD07C4A93422AD07B4A93423BD07B4A1D
:1059A00093424BD07A4A93425BD01023E069B0F522
:1059B000004F00F08B80082B00F2DA80DFE803F064
:1059C000B3C9B1D8CCD8D8D8CF00724B1B6B03F079
:1059D0000303032B09D8DFE803F002040657012371
:1059E000E4E70423E2E70823E0E71023DEE7694B5E
:1059F0001B6B03F44033B3F5003F47D006D8002BB0
:105A000046D0B3F5803F45D10423CFE7B3F5403FFF
:105A100042D10223CAE75F4B1B6B03F44023B3F56B
:105A2000002F3BD005D8DBB3B3F5802F3AD1042348
:105A3000BCE7B3F5402F37D10223B7E7554B1B6BBB
:105A400003F44013B3F5001F30D005D883B3B3F58A
:105A5000801F2FD10423A9E7B3F5401F2CD10223C7
:105A6000A4E74C4B1B6B03F44003B3F5000F25D0A8
:105A700005D82BB3B3F5800F24D1042396E7B3F5F3
:105A8000400F21D1022391E702238FE708238DE7FE
:105A900000238BE7102389E7102387E7082385E796
:105AA000002383E7102381E710237FE708237DE7A6
:105AB00000237BE7102379E7102377E7082375E7B6
:105AC000002373E7102371E710236FE7082B49D8F1
:105AD000DFE803F0051F2548224848480900FEF783
:105AE00097FD002840D06268530803EB4003B3FBE6
:105AF000F2F3A3F110014FF6EF72914236D89AB249
